start client 
request : {"id":"rpc_client","jsonrpc":"1.0","method":"getnewaddress","params":[]}
-- result : {"result":"3DUY3BPF6gH1pYeXKxG6zjsiX2rqar32Gy","error":null,"id":"rpc_client"}

-- wallet --
request : {"id":"rpc_client","jsonrpc":"1.0","method":"setgeneratetoaddressnotime","params":["3DUY3BPF6gH1pYeXKxG6zjsiX2rqar32Gy"]}
-- result : {"result":true,"error":null,"id":"rpc_client"}

request : {"id":"rpc_client","jsonrpc":"1.0","method":"setgeneratetoaddressnotime","params":["3DUY3BPF6gH1pYeXKxG6zjsiX2rqar32Gy"]}
-- result : {"result":true,"error":null,"id":"rpc_client"}

request : {"id":"rpc_client","jsonrpc":"1.0","method":"setgeneratetoaddressnotime","params":["3DUY3BPF6gH1pYeXKxG6zjsiX2rqar32Gy"]}
-- result : {"result":true,"error":null,"id":"rpc_client"}

request : {"id":"rpc_client","jsonrpc":"1.0","method":"setgeneratetoaddressnotime","params":["3DUY3BPF6gH1pYeXKxG6zjsiX2rqar32Gy"]}
-- result : {"result":true,"error":null,"id":"rpc_client"}

request : {"id":"rpc_client","jsonrpc":"1.0","method":"setgeneratetoaddressnotime","params":["3DUY3BPF6gH1pYeXKxG6zjsiX2rqar32Gy"]}
-- result : {"result":true,"error":null,"id":"rpc_client"}

request : {"id":"rpc_client","jsonrpc":"1.0","method":"setgeneratetoaddressnotime","params":["3DUY3BPF6gH1pYeXKxG6zjsiX2rqar32Gy"]}
-- result : {"result":true,"error":null,"id":"rpc_client"}

request : {"id":"rpc_client","jsonrpc":"1.0","method":"setgeneratetoaddressnotime","params":["3DUY3BPF6gH1pYeXKxG6zjsiX2rqar32Gy"]}
-- result : {"result":true,"error":null,"id":"rpc_client"}

request : {"id":"rpc_client","jsonrpc":"1.0","method":"dumpprivkey","params":["3DUY3BPF6gH1pYeXKxG6zjsiX2rqar32Gy"]}
-- result : {"result":"L4v8TXkYK739yu4DVZAruECdnoiiRaNy5aVDSsQ4ByQe253WMeu6","error":null,"id":"rpc_client"}

request : {"id":"rpc_client","jsonrpc":"1.0","method":"getblockhash","params":[1]}
-- result : {"result":"940ce14e25f4c90a073d095fa85523cc89d6f3561d788e598b41812f969a71e4","error":null,"id":"rpc_client"}

request : {"id":"rpc_client","jsonrpc":"1.0","method":"getblock","params":["940ce14e25f4c90a073d095fa85523cc89d6f3561d788e598b41812f969a71e4",true]}
-- result : {"result":{"hash":"940ce14e25f4c90a073d095fa85523cc89d6f3561d788e598b41812f969a71e4","confirmations":7,"strippedsize":214,"size":250,"weight":892,"height":1,"version":536870912,"versionHex":"20000000","merkleroot":"00bb09b2844b01b16f2a14f9c1f80873f9dacc0c3ac0a584a3cafba08b0956cc","tx":["00bb09b2844b01b16f2a14f9c1f80873f9dacc0c3ac0a584a3cafba08b0956cc"],"time":1577836805,"mediantime":1577836805,"nonce":0,"bits":"1e0fffff","difficulty":0.0002441371325370145,"chainwork":"0000000000000000000000000000000000000000000000000000000000200002","nTx":1,"previousblockhash":"000006d66f3cd0f0e2bf5ff0f3aa66bf4deec8eff96b7bc13fc7622532b10ad8","nextblockhash":"5e97203765d2256b58239dedb6becbc5c1516d5534666267939f5dc13b66f453"},"error":null,"id":"rpc_client"}

height 1 coinbase txhash = 00bb09b2844b01b16f2a14f9c1f80873f9dacc0c3ac0a584a3cafba08b0956cc
request : {"id":"rpc_client","jsonrpc":"1.0","method":"getrawtransaction","params":["00bb09b2844b01b16f2a14f9c1f80873f9dacc0c3ac0a584a3cafba08b0956cc",true]}
-- result : {"result":{"txid":"00bb09b2844b01b16f2a14f9c1f80873f9dacc0c3ac0a584a3cafba08b0956cc","hash":"5f4e7032164e6ab29ab68618fdea6d93ea60729e5fedb735debd6d342ed2255f","version":2,"size":169,"vsize":142,"weight":568,"locktime":0,"vin":[{"coinbase":"510101","sequence":4294967295}],"vout":[{"value":5000000.00000000,"n":0,"scriptPubKey":{"asm":"OP_HASH160 81453d7a78eac671f071c621b3dbedb755f7b916 OP_EQUAL","hex":"a91481453d7a78eac671f071c621b3dbedb755f7b91687","reqSigs":1,"type":"scripthash","addresses":["3DUY3BPF6gH1pYeXKxG6zjsiX2rqar32Gy"]}},{"value":0.00000000,"n":1,"scriptPubKey":{"asm":"OP_RETURN aa21a9ede2f61c3f71d1defd3fa999dfa36953755c690689799962b48bebd836974e8cf9","hex":"6a24aa21a9ede2f61c3f71d1defd3fa999dfa36953755c690689799962b48bebd836974e8cf9","type":"nulldata"}}],"hex":"020000000001010000000000000000000000000000000000000000000000000000000000000000ffffffff03510101ffffffff0200406352bfc6010017a91481453d7a78eac671f071c621b3dbedb755f7b916870000000000000000266a24aa21a9ede2f61c3f71d1defd3fa999dfa36953755c690689799962b48bebd836974e8cf90120000000000000000000000000000000000000000000000000000000000000000000000000","blockhash":"940ce14e25f4c90a073d095fa85523cc89d6f3561d788e598b41812f969a71e4","confirmations":7,"time":1577836805,"blocktime":1577836805},"error":null,"id":"rpc_client"}

