start client 
request : {"id":"rpc_client","jsonrpc":"1.0","method":"getnewaddress","params":[]}
-- result : {"result":"35B4DPpSVW7jFmoAHwpD837yeLGgpGr9fr","error":null,"id":"rpc_client"}

-- wallet --
request : {"id":"rpc_client","jsonrpc":"1.0","method":"setgeneratetoaddressnotime","params":["35B4DPpSVW7jFmoAHwpD837yeLGgpGr9fr"]}
-- result : {"result":true,"error":null,"id":"rpc_client"}

request : {"id":"rpc_client","jsonrpc":"1.0","method":"setgeneratetoaddressnotime","params":["35B4DPpSVW7jFmoAHwpD837yeLGgpGr9fr"]}
-- result : {"result":true,"error":null,"id":"rpc_client"}

request : {"id":"rpc_client","jsonrpc":"1.0","method":"setgeneratetoaddressnotime","params":["35B4DPpSVW7jFmoAHwpD837yeLGgpGr9fr"]}
-- result : {"result":true,"error":null,"id":"rpc_client"}

request : {"id":"rpc_client","jsonrpc":"1.0","method":"setgeneratetoaddressnotime","params":["35B4DPpSVW7jFmoAHwpD837yeLGgpGr9fr"]}
-- result : {"result":true,"error":null,"id":"rpc_client"}

request : {"id":"rpc_client","jsonrpc":"1.0","method":"setgeneratetoaddressnotime","params":["35B4DPpSVW7jFmoAHwpD837yeLGgpGr9fr"]}
-- result : {"result":true,"error":null,"id":"rpc_client"}

request : {"id":"rpc_client","jsonrpc":"1.0","method":"setgeneratetoaddressnotime","params":["35B4DPpSVW7jFmoAHwpD837yeLGgpGr9fr"]}
-- result : {"result":true,"error":null,"id":"rpc_client"}

request : {"id":"rpc_client","jsonrpc":"1.0","method":"setgeneratetoaddressnotime","params":["35B4DPpSVW7jFmoAHwpD837yeLGgpGr9fr"]}
-- result : {"result":true,"error":null,"id":"rpc_client"}

request : {"id":"rpc_client","jsonrpc":"1.0","method":"dumpprivkey","params":["35B4DPpSVW7jFmoAHwpD837yeLGgpGr9fr"]}
-- result : {"result":"KybcyV3ktqqDwg4pPbstuFkY31mAJoZgiXw5kJZADUC2JtzYo3Lu","error":null,"id":"rpc_client"}

request : {"id":"rpc_client","jsonrpc":"1.0","method":"getblockhash","params":[1]}
-- result : {"result":"00000c95878dd461a2b8ef004fd98bbbd802613c8acb0266b42058a419f48e93","error":null,"id":"rpc_client"}

request : {"id":"rpc_client","jsonrpc":"1.0","method":"getblock","params":["00000c95878dd461a2b8ef004fd98bbbd802613c8acb0266b42058a419f48e93",true]}
-- result : {"result":{"hash":"00000c95878dd461a2b8ef004fd98bbbd802613c8acb0266b42058a419f48e93","confirmations":7,"strippedsize":214,"size":250,"weight":892,"height":1,"version":536870912,"versionHex":"20000000","merkleroot":"e8c9a37bb848efdd1ddfeab743f2925bc76b68607d79dda597de427cc5823eac","tx":["e8c9a37bb848efdd1ddfeab743f2925bc76b68607d79dda597de427cc5823eac"],"time":1577836805,"mediantime":1577836805,"nonce":626623,"bits":"1e0fffff","difficulty":0.0002441371325370145,"chainwork":"0000000000000000000000000000000000000000000000000000000000200002","nTx":1,"previousblockhash":"000006d66f3cd0f0e2bf5ff0f3aa66bf4deec8eff96b7bc13fc7622532b10ad8","nextblockhash":"00000cd2ad896c42c0a4f128ec99ae351a33a25fe634d17d400b9b6699a50e39"},"error":null,"id":"rpc_client"}

height 1 coinbase txhash = e8c9a37bb848efdd1ddfeab743f2925bc76b68607d79dda597de427cc5823eac
request : {"id":"rpc_client","jsonrpc":"1.0","method":"getrawtransaction","params":["e8c9a37bb848efdd1ddfeab743f2925bc76b68607d79dda597de427cc5823eac",true]}
-- result : {"result":{"txid":"e8c9a37bb848efdd1ddfeab743f2925bc76b68607d79dda597de427cc5823eac","hash":"28a6bcfc28ab25eeeaff1eaa573436bc03e4c7da4503a876ec46092f989e65e4","version":2,"size":169,"vsize":142,"weight":568,"locktime":0,"vin":[{"coinbase":"510101","sequence":4294967295}],"vout":[{"value":5000000.00000000,"n":0,"scriptPubKey":{"asm":"OP_HASH160 2635efb2640b238ff3ed0fa02fa55a097bb6fd6b OP_EQUAL","hex":"a9142635efb2640b238ff3ed0fa02fa55a097bb6fd6b87","reqSigs":1,"type":"scripthash","addresses":["35B4DPpSVW7jFmoAHwpD837yeLGgpGr9fr"]}},{"value":0.00000000,"n":1,"scriptPubKey":{"asm":"OP_RETURN aa21a9ede2f61c3f71d1defd3fa999dfa36953755c690689799962b48bebd836974e8cf9","hex":"6a24aa21a9ede2f61c3f71d1defd3fa999dfa36953755c690689799962b48bebd836974e8cf9","type":"nulldata"}}],"hex":"020000000001010000000000000000000000000000000000000000000000000000000000000000ffffffff03510101ffffffff0200406352bfc6010017a9142635efb2640b238ff3ed0fa02fa55a097bb6fd6b870000000000000000266a24aa21a9ede2f61c3f71d1defd3fa999dfa36953755c690689799962b48bebd836974e8cf90120000000000000000000000000000000000000000000000000000000000000000000000000","blockhash":"00000c95878dd461a2b8ef004fd98bbbd802613c8acb0266b42058a419f48e93","confirmations":7,"time":1577836805,"blocktime":1577836805},"error":null,"id":"rpc_client"}

