start client 
request : {"id":"rpc_client","jsonrpc":"1.0","method":"getnewaddress","params":[]}
-- result : {"result":"1LRkh8SdqGvHoJJM5ud1dkN54LYd4JBpZw","error":null,"id":"rpc_client"}

-- wallet --
request : {"id":"rpc_client","jsonrpc":"1.0","method":"setgeneratetoaddressnotime","params":["1LRkh8SdqGvHoJJM5ud1dkN54LYd4JBpZw"]}
-- result : {"result":true,"error":null,"id":"rpc_client"}

request : {"id":"rpc_client","jsonrpc":"1.0","method":"setgeneratetoaddressnotime","params":["1LRkh8SdqGvHoJJM5ud1dkN54LYd4JBpZw"]}
-- result : {"result":true,"error":null,"id":"rpc_client"}

request : {"id":"rpc_client","jsonrpc":"1.0","method":"setgeneratetoaddressnotime","params":["1LRkh8SdqGvHoJJM5ud1dkN54LYd4JBpZw"]}
-- result : {"result":true,"error":null,"id":"rpc_client"}

request : {"id":"rpc_client","jsonrpc":"1.0","method":"setgeneratetoaddressnotime","params":["1LRkh8SdqGvHoJJM5ud1dkN54LYd4JBpZw"]}
-- result : {"result":true,"error":null,"id":"rpc_client"}

request : {"id":"rpc_client","jsonrpc":"1.0","method":"setgeneratetoaddressnotime","params":["1LRkh8SdqGvHoJJM5ud1dkN54LYd4JBpZw"]}
-- result : {"result":true,"error":null,"id":"rpc_client"}

request : {"id":"rpc_client","jsonrpc":"1.0","method":"setgeneratetoaddressnotime","params":["1LRkh8SdqGvHoJJM5ud1dkN54LYd4JBpZw"]}
-- result : {"result":true,"error":null,"id":"rpc_client"}

request : {"id":"rpc_client","jsonrpc":"1.0","method":"setgeneratetoaddressnotime","params":["1LRkh8SdqGvHoJJM5ud1dkN54LYd4JBpZw"]}
-- result : {"result":true,"error":null,"id":"rpc_client"}

request : {"id":"rpc_client","jsonrpc":"1.0","method":"dumpprivkey","params":["1LRkh8SdqGvHoJJM5ud1dkN54LYd4JBpZw"]}
-- result : {"result":"L2KchrQgWMhTUKUh5rsyLoqbe6ctEKtpqZu399FSqcBwtefNV8YD","error":null,"id":"rpc_client"}

request : {"id":"rpc_client","jsonrpc":"1.0","method":"getblockhash","params":[1]}
-- result : {"result":"0000047938f197e94de2c667d7e9ea0035cce155322c19b1a7abfd915ac1adc9","error":null,"id":"rpc_client"}

request : {"id":"rpc_client","jsonrpc":"1.0","method":"getblock","params":["0000047938f197e94de2c667d7e9ea0035cce155322c19b1a7abfd915ac1adc9",true]}
-- result : {"result":{"hash":"0000047938f197e94de2c667d7e9ea0035cce155322c19b1a7abfd915ac1adc9","confirmations":7,"strippedsize":216,"size":252,"weight":900,"height":1,"version":536870912,"versionHex":"20000000","merkleroot":"4aed6f4d7ad7205f953b2b6684677a8bb00ad54317d6faf7e20903b981c3e97e","tx":["4aed6f4d7ad7205f953b2b6684677a8bb00ad54317d6faf7e20903b981c3e97e"],"time":1577836805,"mediantime":1577836805,"nonce":26575,"bits":"1e0fffff","difficulty":0.0002441371325370145,"chainwork":"0000000000000000000000000000000000000000000000000000000000200002","nTx":1,"previousblockhash":"000006d66f3cd0f0e2bf5ff0f3aa66bf4deec8eff96b7bc13fc7622532b10ad8","nextblockhash":"00000b9a87dca92e17557e8fd5bcc4b25311dab40b1f1f6c68bc76d867932633"},"error":null,"id":"rpc_client"}

height 1 coinbase txhash = 4aed6f4d7ad7205f953b2b6684677a8bb00ad54317d6faf7e20903b981c3e97e
request : {"id":"rpc_client","jsonrpc":"1.0","method":"getrawtransaction","params":["4aed6f4d7ad7205f953b2b6684677a8bb00ad54317d6faf7e20903b981c3e97e",true]}
-- result : {"result":{"txid":"4aed6f4d7ad7205f953b2b6684677a8bb00ad54317d6faf7e20903b981c3e97e","hash":"677459e270a5ea332e7b03c2021429c85231d7941aab380ae58ed2e789003830","version":2,"size":171,"vsize":144,"weight":576,"locktime":0,"vin":[{"coinbase":"510101","sequence":4294967295}],"vout":[{"value":5000000.00000000,"n":0,"scriptPubKey":{"asm":"OP_DUP OP_HASH160 d518d8590ebfadb4441334d58073ad9c951ebcc3 OP_EQUALVERIFY OP_CHECKSIG","hex":"76a914d518d8590ebfadb4441334d58073ad9c951ebcc388ac","reqSigs":1,"type":"pubkeyhash","addresses":["1LRkh8SdqGvHoJJM5ud1dkN54LYd4JBpZw"]}},{"value":0.00000000,"n":1,"scriptPubKey":{"asm":"OP_RETURN aa21a9ede2f61c3f71d1defd3fa999dfa36953755c690689799962b48bebd836974e8cf9","hex":"6a24aa21a9ede2f61c3f71d1defd3fa999dfa36953755c690689799962b48bebd836974e8cf9","type":"nulldata"}}],"hex":"020000000001010000000000000000000000000000000000000000000000000000000000000000ffffffff03510101ffffffff0200406352bfc601001976a914d518d8590ebfadb4441334d58073ad9c951ebcc388ac0000000000000000266a24aa21a9ede2f61c3f71d1defd3fa999dfa36953755c690689799962b48bebd836974e8cf90120000000000000000000000000000000000000000000000000000000000000000000000000","blockhash":"0000047938f197e94de2c667d7e9ea0035cce155322c19b1a7abfd915ac1adc9","confirmations":7,"time":1577836805,"blocktime":1577836805},"error":null,"id":"rpc_client"}

